:020000040000FA
:10000000600400206D020000710200007302000015
:100010007502000077020000790200000000000075
:100020000000000000000000000000007B02000053
:100030007D020000000000007F020000810200003D
:10004000830200008302000083020000830200009C
:10005000830200008302000083020000830200008C
:10006000830200008302000083020000830200007C
:10007000830200008302000083020000830200006C
:10008000830200008302000083020000830200005C
:10009000830200008302000083020000830200004C
:1000A000830200008302000083020000830200003C
:1000B000830200008302000083020000830200002C
:1000C000830200008302000083020000830200001C
:1000D000830200008302000083020000830200000C
:1000E00083020000830200008302000083020000FC
:1000F00083020000830200008302000083020000EC
:1001000083020000830200008302000083020000DB
:1001100083020000830200008302000083020000CB
:1001200083020000830200008302000083020000BB
:1001300083020000830200008302000083020000AB
:1001400000000000000000000000000000000000AF
:10015000830200008302000083020000830200008B
:10016000000000000000000000000000000000008F
:10017000000000000000000000000000000000007F
:10018000000000000000000000000000000000006F
:10019000000000000000000000000000000000005F
:1001A000000000000000000000000000000000004F
:1001B000830200008302000083020000830200002B
:1001C000830200008302000083020000830200001B
:1001D000830200008302000083020000830200000B
:1001E00083020000830200008302000083020000FB
:1001F00083020000830200008302000083020000EB
:10020000830200008302000083020000000000005F
:1002100083020000830200008302000083020000CA
:1002200083020000830200008302000083020000BA
:1002300083020000830200008302000083020000AA
:10024000830200008302000083020000830200009A
:10025000830200008302000083020000830200008A
:1002600083020000830200008302000000F00AB84D
:10027000FEE7FEE7FEE7FEE7FEE7FEE7FEE7FEE756
:10028000FEE7FEE700F002F800F02CF80AA090E884
:10029000000C82448344AAF10107DA4501D100F041
:1002A00021F8AFF2090EBAE80F0013F0010F18BFE2
:1002B000FB1A43F001031847D0090000E0090000D1
:1002C0000023002400250026103A28BF78C1FBD85F
:1002D000520728BF30C148BF0B6070471FB51FBD14
:1002E00010B510BD00F029F81146FFF7F7FF00F038
:1002F00077FB00F047F803B4FFF7F2FF03BC00F010
:100300004FF8000072B6704762B67047EFF3108086
:1003100072B6704780F31088704730BF704702484C
:100320000249014A024B704760000020600400202F
:1003300060000020704770477047754600F02CF849
:10034000AE4605006946534620F00700854618B0C2
:1003500020B5FFF7E4FFBDE820404FF000064FF066
:1003600000074FF000084FF0000BAC46ACE8C009A6
:10037000ACE8C009ACE8C009ACE8C00921F007014D
:100380008D46704710B50446AFF300802046BDE8A7
:100390001040FFF7B0BF0000004870470000002089
:1003A00001491820ABBEFEE726000200704700009E
:1003B00081B00090FFE7009801380090FFE70098B7
:1003C0000028F8D1FFE701B07047000080B582B087
:1003D00000200190FFE70198B0F5FC7F09DAFFE704
:1003E0000120002100F0B4FAFFE7019801300190EC
:1003F000F1E70021084600F043FA02B080BD00009A
:1004000080B582B04EF20411C4F20F01086840F0CA
:10041000100008604EF20810C4F20F00016841F0AD
:10042000010101600068019044F20041C4F2000142
:10043000086840F0C000086044F22041C4F20001A6
:10044000086840F02C000860086820F0C0000860D0
:1004500044F21C51C4F20001086840F0EC0008604E
:1004600044F22C51C4F200010868FF22CFF60F724B
:10047000104042F20022C0F22002104308600868D7
:1004800020F07F40086044F22851C4F2000108685F
:1004900020F0EC00086048F20401C4F20001086892
:1004A00020F002000860086820F00400086048F6A8
:1004B000C872C4F20002106820F00F00106048F209
:1004C0001002C4F200021068102363F307001060EA
:1004D00048F20002C4F2000210684FF6C07398435D
:1004E0001060106820F0300010601068072363F37C
:1004F00003001060086840F00200086044F2002128
:10050000C4F20001002008600190FFE7019809286B
:1005100005D8FFE7FFE7019801300190F6E744F2C4
:100520000021C4F2000180200860002000902121F9
:1005300000F00EFA0098BF2100F00AFA009804219A
:1005400000F006FA0098142100F002FA0098202129
:1005500000F0FEF900980C2100F0FAF902B080BD1D
:1005600080B584B08DF80F0001200021019100F0CA
:10057000EFF901980290FFE70298042815DCFFE7E5
:100580009DF80F0000EB800040F66221C0F20001F0
:1005900008440299084410F8A01C012000F0D8F982
:1005A000FFE7029801300290E6E70120002100F009
:1005B000CFF904B080BD000080B582B00190FFE7A4
:1005C0000198007840B1FFE701980078FFF7C8FF75
:1005D000019801300190F3E702B080BD80B58EB084
:1005E000ADF83600BDF8360009280DDCFFE740F60F
:1005F0004240C0F20000FFF7DFFFBDF836003030A8
:10060000C0B2FFF7ADFF39E1BDF83600632824DC46
:10061000FFE740F64340C0F20000FFF7CDFFBDF812
:1006200036004CF6CD41CCF6CC410C91A0FB01013B
:10063000302000EBD100C0B2FFF792FF0C99BDF85B
:100640003600A0FB0121C90801EB8101A0EB4100AC
:1006500040F03000FFF784FF0FE1BDF83600B0F541
:100660007A7F3FDAFFE740F64440C0F20000FFF730
:10067000A3FFBDF8360048F21F51C5F2EB110991F6
:10068000A0FB010130200A9000EB5110C0B2FFF72F
:1006900067FF09990A98BDF83630A3FB0121490983
:1006A000642201FB1231ADF83610BDF836104CF65D
:1006B000CD42CCF6CC420B92A1FB022100EBD10043
:1006C000C0B2FFF74DFF0B99BDF83600A0FB01212A
:1006D000C90801EB8101A0EB410040F03000FFF7B9
:1006E0003FFFC9E0BDF8360042F20F71884256DC88
:1006F000FFE72020FFF734FFBDF8360044F6D35162
:10070000C1F262010591A0FB01013020079000EBCE
:100710009110FFF725FF05990798BDF83630A3FB28
:10072000012189094FF47A7201FB1231ADF83610BC
:10073000BDF8361048F21F52C5F2EB120692A1FB2B
:10074000022100EB5110C0B2FFF70AFF069907988B
:10075000BDF83630A3FB01214909642201FB1231A7
:10076000ADF83610BDF836104CF6CD42CCF6CC4282
:100770000892A1FB022100EBD100C0B2FFF7F0FE0E
:100780000899BDF83600A0FB0121C90801EB8101E1
:10079000A0EB410040F03000FFF7E2FE6BE0BDF857
:1007A000360041F25971CDF2B7110091A0FB011052
:1007B000400B3030FFF7D4FE0098BDF83620A2FB86
:1007C0000010400B42F2107100FB1120ADF8360012
:1007D000BDF8360044F6D351C1F262010191A0FB8D
:1007E00001013020039000EB9110FFF7B9FE019951
:1007F0000398BDF83630A3FB012189094FF47A72C2
:1008000001FB1231ADF83610BDF8361048F21F5218
:10081000C5F2EB120292A1FB022100EB5110C0B213
:10082000FFF79EFE02990398BDF83630A3FB012125
:100830004909642201FB1231ADF83610BDF83610BB
:100840004CF6CD42CCF6CC420492A1FB022100EB47
:10085000D100C0B2FFF784FE0499BDF83600A0FBBA
:100860000121C90801EB8101A0EB410040F03000FB
:10087000FFF776FEFFE7FFE7FFE7FFE70EB080BD7B
:1008800080B582B08DF807008DF806109DF807003E
:100890000B2805DCFFE79DF80600062801DBFFE7D3
:1008A00012E09DF80700C0EBC00040F08000C1B22C
:1008B0000020009000F04CF800989DF8061041F0E0
:1008C000400100F045F8FFE702B080BD81B04EF274
:1008D0007001C4F20F010091086840F00040086008
:1008E000086840F4006008604EF26002C4F20F0233
:1008F000106820F4F8601060106800F5A8601060BF
:10090000086820F07000086008680860086820F433
:1009100000500860086840F08040086008680422C1
:1009200062F39C500860FFE74EF25000C4F20F00E3
:1009300000684006002801D4FFE7F5E74EF2700199
:10094000C4F20F01086820F40060086001B070472D
:1009500081B08DF803008DF802109DF8030020BBD4
:10096000FFE7FFE748F20C00C4F200000068C00691
:10097000002801D5FFE7F5E744F20011C4F20001B9
:10098000002008609DF8020048F20801C4F200014E
:100990000860FFE748F20C00C4F200000068C006DF
:1009A000002801D5FFE7F5E718E0FFE748F20C0063
:1009B000C4F2000000688007002801D4FFE7F5E7D3
:1009C00044F20011C4F20001402008609DF80200CA
:1009D00048F20801C4F200010860FFE701B0704767
:1009E00080B584B0002001900390ADF80A00FFF7B5
:1009F0006DFFFFF705FD0198ADF80A00FFF7E6FC73
:100A000040F64740C0F20000FFF7D6FD7F20FFF719
:100A1000A7FDFFE705210846FFF732FFBDF80A20D2
:100A20004EF64F40C4F6C460A2FB0010C0081A2165
:100A300000FB11204130C0B2FFF792FD2020FFF7EC
:100A40008FFDBDF80A00FFF7C9FD42F61500C0F2A0
:100A50007F00FFF7ADFCBDF80A000130ADF80A00D9
:100A6000D8E7000000000000005F0000000700075A
:100A700000147F147F14242A7F2A1223130864622F
:100A800036495522500005030000001C2241000099
:100A900041221C0014083E081408083E08080050B3
:100AA00030000008080808080060600000201008F6
:100AB00004023E5149453E00427F40004261514997
:100AC000462141454B311814127F102745454539C1
:100AD0003C4A4949300171090503364949493606FE
:100AE0004949291E00363600000056360000081419
:100AF000224100141414141400412214080201515C
:100B00000906324979413E7E1111117E7F494949DA
:100B1000363E414141227F4141221C7F49494941A2
:100B20007F090909013E4149497A7F0808087F0089
:100B3000417F41002040413F017F081422417F4016
:100B40004040407F020C027F7F0408107F3E4141FD
:100B5000413E7F090909063E4151215E7F0919295D
:100B600046464949493101017F01013F4040403F2C
:100B70001F2040201F3F4038403F63140814630784
:100B8000087008076151494543007F414100020454
:100B90000810200041417F0004020102044040404F
:100BA0004040000102040020545454787F484444DB
:100BB000383844444420384444487F385454541806
:100BC000087E0901020C5252523E7F08040478004C
:100BD000447D40002040443D007F102844000041F7
:100BE0007F40007C041804787C080404783844446E
:100BF00044387C14141408081414187C7C08040469
:100C0000084854545420043F4440203C4040207C39
:100C10001C2040201C3C4030403C44281028440C00
:100C20005050503C4464544C44000836410000008D
:100C30007F0000004136080010080810083E207CA4
:100C4000547C20202020002A2A2A2A2A2A2A2A2ADA
:100C50002A2A2A2A204C43442054657374202A2AC5
:100C60002A2A2A2A2A2A2A2A2A2A2A4C65747465B8
:100C7000723A204E756D3A2D2D2D2D2D2D2D202DB6
:100C80002D2D2D2000000000980C000000000020F9
:080C900060040000C002000036
:040000050000026D88
:00000001FF
